:020000040800F2
:1000000000000120D51A0308391A03083D1A030815
:100010004D1A03084F1A0308511A03080000000084
:1000200000000000000000000000000011090308AB
:10003000531A030800000000B1090308F50903087A
:100040001D1B03081D1B03081D1B03081D1B0308A4
:100050001D1B03081D1B03081D1B03081D1B030894
:100060001D1B03081D1B03081D1B03081D1B030884
:100070001D1B03081D1B03081D1B03081D1B030874
:100080001D1B03081D1B03081D1B03081D1B030864
:100090001D1B03081D1B03081D1B03081D1B030854
:1000A0001D1B0308551A03081D1B03081D1B03080D
:1000B000651A03081D1B03081D1B03081D1B0308ED
:1000C0001D1B03081D1B03081D1B03081D1B030824
:1000D0001D1B03086D1A03087D1A03087F1A030805
:1000E0001D1B03081D1B03081D1B03081D1B030804
:1000F0001D1B03081D1B03081D1B03081D1B0308F4
:100100001D1B0308811A03081D1B03081D1B030880
:100110001D1B03081D1B03081D1B03081D1B0308D3
:100120001D1B03081D1B03081D1B03081D1B0308C3
:1001300000000000000000000000000000000000BF
:1001400000000000000000000000000000000000AF
:10015000000000000000000000000000000000009F
:10016000000000000000000000000000000000008F
:10017000000000000000000000000000000000007F
:10018000000000000000000000000000000000006F
:10019000000000000000000000000000000000005F
:1001A000000000000000000000000000000000004F
:1001B000000000000000000000000000000000003F
:1001C000000000000000000000000000000000002F
:1001D000000000000000000000000000000000001F
:0401E0005FF8E0F1F3
:1001F00010B5054C237833B9044B13B10448AFF361
:1002000000800123237010BDC80000200000000002
:10021000D01B030808B5034B1BB103490348AFF3D8
:10022000008008BD00000000CC000020D01B0308A7
:1002300010F8012B11F8013B012A28BF9A42F7D090
:10024000D01A7047034613F8012B002AFBD1181A65
:100250000138704753B94AB9002908BF00281CBFAC
:100260004FF0FF314FF0FF3000F07AB9ADF1080CDC
:100270006DE904CE00F006F8DDF804E0DDE90223C4
:1002800004B070472DE9F0478C460E460446089DA1
:10029000002B50D18A4217466CD9B2FA82FEBEF1C9
:1002A000000F0BD0CEF1200C01FA0EF620FA0CFC58
:1002B00002FA0EF74CEA060C00FA0EF43A0CBCFBFC
:1002C000F2F9BBB202FB19CC09FB03FA4FEA14485E
:1002D00048EA0C46B2450AD9F61909F1FF3180F017
:1002E0002581B24540F22281A9F102093E44A6EBE4
:1002F0000A06B6FBF2F002FB106600FB03F3A4B2A1
:1003000044EA0644A34209D9E41900F1FF3280F01F
:100310000B81A34240F2088102383C440021E41AD8
:1003200040EA0940002D62D0002324FA0EF42C602C
:100330006B60BDE8F0878B4207D9002D55D00021B6
:1003400085E841000846BDE8F087B3FA83F100294B
:1003500040F08F80B34202D3824200F2FC80841AC4
:1003600066EB03060120B446002D40D085E810104E
:10037000BDE8F08712B90127B7FBF2F7B7FA87FE9D
:10038000BEF1000F35D10121F61B4FEA174C1FFAC1
:1003900087F8B6FBFCF20CFB126608FB02F0230C9C
:1003A00043EA0646B04207D9F61902F1FF3302D2FA
:1003B000B04200F2D2801A46361AB6FBFCF00CFBB3
:1003C000106608FB00F8A3B243EA0644A04507D92B
:1003D000E41900F1FF3302D2A04500F2B9801846BB
:1003E000A4EB080440EA02409CE729462846BDE801
:1003F000F08707FA0EF7CEF1200326FA03F24FEA50
:10040000174CB2FBFCF11FFA87F80CFB112206FA1D
:100410000EF620FA03F301FB08F933431E0C46EAFB
:100420000246B14500FA0EF409D9F61901F1FF327E
:1004300080F08C80B14540F2898002393E44A6EBC1
:100440000906B6FBFCF00CFB106200FB08F99EB23B
:1004500046EA0246B14507D9F61900F1FF3371D2D9
:10046000B1456FD902383E44A6EB090640EA014186
:100470008FE7C1F1200722FA07F88B4048EA03030F
:1004800026FA07F44FEA134EB4FBFEF91FFA83FC79
:100490000EFB19448E4020FA07F809FB0CFA48EAD3
:1004A00006084FEA184646EA0444A24502FA01F259
:1004B00000FA01F608D9E41809F1FF3044D2A24548
:1004C00042D9A9F102091C44A4EB0A04B4FBFEF0D2
:1004D0000EFB104400FB0CFC1FFA88F848EA0444A9
:1004E000A44507D9E41800F1FF3E29D2A44527D935
:1004F00002381C4440EA0940A0FB0289A4EB0C0C22
:10050000CC45C246CE4615D312D055B1B6EB0A0340
:100510006CEB0E0606FA07F7CB401F43CE402F6068
:100520006E600021BDE8F0871046F7E68946DEE6FA
:100530004645EAD2B8EB020A69EB030E0138E4E75C
:100540007046D7E718468FE78146BDE7114676E744
:1005500002383C4444E7084606E7023A3E442BE7AB
:10056000704700BF08B5074A136843F010031360D3
:10057000032000F02FF8002031F022FA31F0C0F90A
:10058000002008BD00200240034A1168034B1B787D
:100590000B441360704700BF10AF00200000002024
:1005A000014B1868704700BF10AF002038B50446F3
:1005B000FFF7F6FF0546B4F1FF3F02D0044B1B786E
:1005C0001C44FFF7EDFF401B8442FAD838BD00BF42
:1005D00000000020074AD36823F4E0631B041B0CCF
:1005E000000200F4E060184340F0BF6040F40030C7
:1005F000D060704700ED00E030B4164BDB68C3F309
:100600000223C3F10704042C28BF04241D1D062D5A
:1006100017D9033B012505FA04F4013C2140994018
:1006200005FA03F3013B1340194300280BDB0901D2
:10063000C9B200F1604000F5614080F8001330BCA1
:1006400070470023E6E700F00F000901C9B2024B32
:100650001954F4E700ED00E014ED00E0420900F069
:100660001F00012303FA00F0014B43F822007047FA
:1006700000E100E058B110B5044643791BB10123F5
:100680006371002010BD037131F062F9F7E70120BA
:1006900070470000F0B583B00026344679E0002DA5
:1006A00000F0A980012D00D1CE68FF2B00F2B780A9
:1006B0008646FF2B00F2B680A500DEF800200F274B
:1006C000AF4022EA070206FA05F52A43CEF80020D9
:1006D0004A6812F0805F5BD0674A956945F0010572
:1006E0009561926902F001020192019AA208971C99
:1006F000624D55F8275004F003074FEA870E0F2785
:1007000007FA0EF725EA07055D4FB84200F0908022
:1007100007F58067B84200F08D8007F58067B84222
:1007200000F08A8007F58067B84200F0878007F5FF
:100730008067B84200F0848007F58067B84275D0C2
:10074000062707FA0EF73D4302324C4F47F8225076
:100750004A6812F4803F75D04A4D2A681A432A60CD
:100760004A6812F4003F73D0464D6A681A436A60C3
:100770004A6812F4801F71D0424DAA681A43AA60D9
:100780004A6812F4001F6FD03E4DEA681343EB60D5
:1007900001340F2C6ED80122A2400B6813409A42FC
:1007A000F6D14D68122D30D00BD8022D2AD07FF60D
:1007B00076AF032D2FD0112D7FF477AFCE6804369E
:1007C00073E7314FBD4216D00CD9304FBD4212D025
:1007D00007F58037BD420ED0A7F58017BD427FF4E4
:1007E00064AF08E0A7F58017BD4204D007F5803755
:1007F000BD427FF45AAF8D687DB1012D08D04261B2
:10080000082652E7CE6808364FE7CE680C364CE72C
:100810000261082649E7002647E7042645E700F17C
:10082000040E46E7A4F10805AD0046E7052788E772
:10083000002786E7012784E7022782E7032780E76E
:1008400004277EE70F4D2A6822EA03022A6087E721
:100850000C4D6A6822EA03026A6089E7094DAA68BA
:1008600022EA0302AA608BE7064DEA6822EA030344
:10087000EB608DE703B0F0BD0010024000000140C6
:100880000008014000040140000021100000311068
:100890008368194201D1002070470120704712B9C6
:1008A00009040161704701617047000082B0084B84
:1008B0001B68084AA2FB03235B0A00FB03F00190BC
:1008C00000BF019B5A1E0192002BF9D102B0704764
:1008D000C4000020D34D621070B582B00446036896
:1008E00013F0010F3DD0AC4B5B6803F00C03042BFD
:1008F0002ED0A94B5B6803F00C03082B23D0636850
:10090000B3F5803F51D0002B55D103F1804303F55F
:1009100004331A6822F480321A601A6822F48022A2
:100920001A606368002B60D0FFF73AFE05469A4BC9
:100930001B6813F4003F14D1FFF732FE401B6428FC
:10094000F5D90320AFE1944B5B6813F4803FD6D018
:10095000914B1B6813F4003F03D06368002B00F039
:100960009F81236813F0020F65D08B4B5B6813F0F7
:100970000C0F4ED0884B5B6803F00C03082B43D060
:100980002369002B79D00122844B1A60FFF708FEFF
:100990000546814B1B6813F0020F65D1FFF700FE7F
:1009A000401B0228F5D903207DE17B4A136843F4FC
:1009B00080331360B5E7B3F5A02F09D0764B1A68E2
:1009C00022F480321A601A6822F480221A60A8E7A2
:1009D00003F18043A3F53C331A6842F480221A6085
:1009E0001A6842F480321A609BE7FFF7D9FD05468A
:1009F000694B1B6813F4003FB3D0FFF7D1FD401BD8
:100A00006428F5D903204EE1634B5B6813F4803F03
:100A1000B6D1614B1B6813F0020F04D02369012B80
:100A200001D001203FE15C4A136823F0F8036169BB
:100A300043EAC1031360236813F0080F32D0A3699F
:100A4000002B6ED00122564B1A60FFF7A9FD054618
:100A5000514B5B6A13F0020F21D1FFF7A1FD401B40
:100A60000228F5D903201EE14B4A136823F0F8034E
:100A7000616943EAC1031360DDE70022474B1A6056
:100A8000FFF78EFD0546444B1B6813F0020FD2D0D2
:100A9000FFF786FD401B0228F5D9032003E1012062
:100AA000FFF704FF236813F0040F00F099803A4B1E
:100AB000DB6913F0805F46D1374BDA6942F0805230
:100AC000DA61DB6903F080530193019B0125354B0B
:100AD0001B6813F4807F38D0E368012B49D0002BCA
:100AE0004DD103F1804303F504331A6A22F0010269
:100AF0001A621A6A22F004021A62E368002B5DD0BF
:100B0000FFF74EFD0646244B1B6A13F0020F66D119
:100B1000FFF746FD801B41F288339842F3D903204A
:100B2000C1E000221E4B1A60FFF73AFD05461A4B42
:100B30005B6A13F0020FB5D0FFF732FD401B0228AD
:100B4000F5D90320AFE00025C1E7164A136843F446
:100B500080731360FFF724FD0646124B1B6813F4E5
:100B6000807FB9D1FFF71CFD801B6428F5D90320D5
:100B700099E0094A136A43F001031362BDE7052BAC
:100B800012D0054B1A6A22F001021A621A6A22F088
:100B900004021A62B1E700BF0010024000004242A6
:100BA0008004424200700040414B1A6A42F0040245
:100BB0001A621A6A42F001021A629EE7FFF7F0FC1D
:100BC00006463B4B1B6A13F0020F08D0FFF7E8FC08
:100BD000801B41F288339842F3D9032063E0E5B9E2
:100BE000E369002B5ED0324A526802F00C02082AF8
:100BF0005BD0022B17D000222E4B1A60FFF7D0FCDF
:100C000004462B4B1B6813F0007F47D0FFF7C8FC4E
:100C1000001B0228F5D9032045E0254AD36923F0BB
:100C20008053D361DCE70022224B1A60FFF7B8FC47
:100C300005461F4B1B6813F0007F06D0FFF7B0FC82
:100C4000401B0228F5D903202DE0236AB3F5803F2D
:100C50001AD017494B6823F47413226A606A02435E
:100C600013434B600122134B1A60FFF799FC0446B3
:100C70000F4B1B6813F0007F0ED1FFF791FC001B98
:100C80000228F5D903200EE0094A536823F4003303
:100C9000A1680B435360DCE7002004E0002002E081
:100CA000012000E0002002B070BD0120FBE700BF82
:100CB000001002406000424210B586B0154C94E826
:100CC0000F000DF1180E0EE90F00238AADF8043065
:100CD000114B5B6803F00C02082A18D1C3F383425E
:100CE000724412F8102C13F4803F03D10B4800FB20
:100CF00002F00DE0084B5B68C3F34043734413F804
:100D0000143C074800FB02F0B0FBF3F000E004489D
:100D100006B010BDE81B03080010024000093D00AA
:100D200000127A00624B1B6803F007038B420CD25F
:100D30005F4A136823F007030B431360136803F043
:100D40000703994201D00120704770B5036813F082
:100D5000020F17D013F0040F04D0564A536843F41F
:100D6000E0635360036813F0080F04D0514A5368DE
:100D700043F4605353604F4A536823F0F003846890
:100D8000234353600D460446036813F0010F52D00D
:100D90004368012B23D0022B28D0464A126812F058
:100DA000020F00F0828043494A6822F00302134395
:100DB0004B60FFF7F5FB06466368012B1DD0022B45
:100DC0002AD03C4B5B6813F00C0F34D0FFF7E8FBE4
:100DD000801B41F288339842F3D9032070BD354A15
:100DE000126812F4003FDED1012070BD314A126852
:100DF00012F0007FD7D1012070BD2E4B5B6803F04D
:100E00000C03042B17D0FFF7CBFB801B41F2883378
:100E10009842F2D9032070BD264B5B6803F00C03A7
:100E2000082B08D0FFF7BCFB801B41F288339842A7
:100E3000F2D9032070BD1E4B1B6803F007039D42CF
:100E40000CD21B4A136823F007032B43136013686B
:100E500003F007039D4201D0012070BD236813F009
:100E6000040F06D0134A536823F4E063E1680B4390
:100E70005360236813F0080F07D00E4A536823F419
:100E80006053216943EAC1035360FFF715FF094B23
:100E90005B68C3F30313084AD35CD840074B186060
:100EA000002030F08DFD002070BD012070BD00BF1E
:100EB0000020024000100240245E0308C40000200D
:100EC000014B1868704700BFC400002008B5FFF749
:100ED000F7FF044B5B68C3F3C223034AD35CD840DB
:100EE00008BD00BF00100240345E03080F230360FA
:100EF0000B4B5A6802F0030242605A6802F0F0029B
:100F000082605A6802F4E062C2605B68DB0803F446
:100F1000E0630361034B1B6803F007030B6070473A
:100F2000001002400020024028B370B50446154668
:100F30000E4690F83D30CBB104F10801206800F076
:100F4000D5FBA2683146206800F020FC236BA26824
:100F50002946606800F03AFC2268A16852F8213006
:100F600043F0010342F82130002070BD80F83C308E
:100F700030F021FDE0E701207047000030B4036A43
:100F800023F001030362036A4468826922F073025A
:100F90000D682A4323F002038D682B43114DA842AC
:100FA00011D005F50065A8420DD00E4DA84211D014
:100FB00005F50065A8420DD0446082614A6842632D
:100FC000036230BC704723F00803CD682B4323F045
:100FD0000403EAE724F440744D692C438D692C43E3
:100FE000EAE700BF002C014030B4036A23F48073A9
:100FF0000362036A4468C26922F073020D682A43DF
:1010000023F400738D6843EA0523134DA84211D0E1
:1010100005F50065A8420DD00F4DA84212D005F588
:101020000065A8420ED04460C2614A68C263036290
:1010300030BC704723F40063CD6843EA052323F4F2
:101040008063E9E724F440544D6944EA05148D694E
:1010500044EA0514E7E700BF002C014030B4036AFE
:1010600023F480530362036A4468C26922F4E642AF
:101070000D6842EA052223F400538D6843EA0533E4
:10108000094DA8420AD005F50065A84206D0446083
:10109000C2614A680264036230BC704724F4804431
:1010A0004D6944EA8514F2E7002C01400268D368D8
:1010B00043F00103D3600268136843F00103136037
:1010C000002070477047704770477047704710B5F1
:1010D000044603681A6912F0020F11D0DA6812F0A0
:1010E000020F0DD06FF002021A610123037703682B
:1010F0009B6913F0030F70D0FFF7E6FF00232377FF
:1011000023681A6912F0040F12D0DA6812F0040F83
:101110000ED06FF004021A610223237723689B69C3
:1011200013F4407F5FD02046FFF7CEFF00232377E4
:1011300023681A6912F0080F12D0DA6812F0080F4B
:101140000ED06FF008021A61042323772368DB694D
:1011500013F0030F4ED02046FFF7B6FF002323778E
:1011600023681A6912F0100F12D0DA6812F0100F0B
:101170000ED06FF010021A61082323772368DB6911
:1011800013F4407F3DD02046FFF79EFF00232377D6
:1011900023681A6912F0010F03D0DA6812F0010F08
:1011A00036D123681A6912F0800F03D0DA6812F082
:1011B000800F34D123681A6912F0400F03D0DA6827
:1011C00012F0400F32D123681A6912F0200F03D0B9
:1011D000DA6812F0200F30D110BDFFF774FF2046FF
:1011E000FFF773FF8AE72046FFF76DFF2046FFF702
:1011F0006CFF9BE72046FFF766FF2046FFF765FF81
:10120000ACE72046FFF75FFF2046FFF75EFFBDE734
:101210006FF001021A61204630F032FBC1E76FF037
:1012200080021A61204600F091F9C3E76FF0400296
:101230001A612046FFF74AFFC5E76FF020021A61E6
:10124000204600F082F9C7E70368254A904212D091
:1012500002F5006290420ED0B0F1804F0BD0A2F5A3
:101260009832904207D002F58062904203D002F596
:101270008062904203D123F070034A681343184AF6
:10128000904212D002F5006290420ED0B0F1804F31
:101290000BD0A2F59832904207D002F580629042BE
:1012A00003D002F58062904203D123F44073CA68F0
:1012B000134323F080034A69134303608B68C362BE
:1012C0000B688362064B984206D003F50063984290
:1012D00002D00123436170470B690363F9E700BF44
:1012E000002C0140A8B110B5044690F83D305BB128
:1012F000022384F83D30211D2068FFF7A5FF01235C
:1013000084F83D30002010BD80F83C3030F036FBD2
:10131000EEE701207047A8B110B5044690F83D30C3
:101320005BB1022384F83D30211D2068FFF78CFF5C
:10133000012384F83D30002010BD80F83C30FFF7D9
:10134000C1FEEEE70120704730B4036A23F01003BA
:101350000362036A4468826922F4E6420D6842EA45
:10136000052223F020038D6843EA0513124DA8429D
:1013700011D005F50065A8420DD00F4DA84212D03E
:1013800005F50065A8420ED0446082614A68826318
:10139000036230BC704723F08003CD6843EA051335
:1013A00023F04003E9E724F440644D6944EA8504EE
:1013B0008D6944EA8504E7E7002C014038B590F8D0
:1013C0003C30012B66D00D460446012380F83C30AA
:1013D000022380F83D300C2A1AD8DFE802F0071902
:1013E0001919201919193419191947000068FFF73C
:1013F000C5FD2268936943F00803936122689369ED
:1014000023F0040393612268936929690B43936174
:10141000012384F83D30002084F83C0038BD00688A
:10142000FFF792FF2268936943F400639361226897
:10143000936923F48063936122689369296943EA7D
:1014400001239361E4E70068FFF7CEFD2268D369CA
:1014500043F00803D3612268D36923F00403D36106
:101460002268D36929690B43D361D1E70068FFF78C
:10147000F5FD2268D36943F40063D3612268D36920
:1014800023F48063D3612268D369296943EA012385
:10149000D361BDE7022038BD10B4012303FA01F483
:1014A000036A23EA04030362036A8A401343036264
:1014B00010BC704710B5044601220068FFF7ECFF2E
:1014C00023680C4A934212D002F5006293420CD07A
:1014D00000221AB15A6C42F400425A64226813681E
:1014E00043F001031360002010BD0122F1E7012247
:1014F000EFE700BF002C014090F83C30012B22D0D8
:1015000030B4012280F83C20022380F83D3004688A
:10151000636823F070036360046863680D682B439D
:1015200063600468A36823F08003A3600468A36871
:1015300049680B43A36080F83D20002380F83C30CD
:10154000184630BC70470220704770477047000053
:10155000444B984237D0444B984238D0414B984244
:1015600039D0414B98423AD03E4B98423BD03E4B0B
:1015700098423CD03B4B98423DD03B4B98423ED0AA
:10158000384B98423FD0384B984240D0354B984228
:1015900041D0364B1A6822F001021A6000221A600C
:1015A0005A609A60DA6001293BD002293DD00329B4
:1015B0003FD0042942D0052945D0062948D0072923
:1015C0004BD0002070470129C5D1294BE2E7012902
:1015D000C4D1284BDEE70229C3D1274BDAE7022921
:1015E000C2D1264BD6E70329C1D1254BD2E7032927
:1015F000C0D1244BCEE70429BFD1234BCAE704292D
:10160000BED1224BC6E70529BDD1214BC2E7052932
:10161000BCD1204BBEE7062901D08033BAE71E4B70
:10162000B8E7012343601846704710234360012048
:1016300070474FF480734360012070474FF480532C
:101640004360012070474FF48033436001207047AE
:101650004FF480134360012070474FF08073436064
:101660000120704700000240000402408000024058
:1016700008000240080402401C0002401C04024012
:101680003000024030040240440002404404024062
:1016900058000240580402406C00024030B4936885
:1016A000D46823431469234354692343946923432F
:1016B000D4692343546A234301390B4C655C2C18CD
:1016C000295821F4FF4121F070010B432B5053683E
:1016D000E3601368A360126A63681B0C1B04134366
:1016E0006360012030BC70474C1C030830B40A68AA
:1016F00050F8223023F0010340F822308B68082B89
:1017000020D00C6850F824501F4A2A404D682B43C3
:10171000CD682B430D692B434D692B438D692B43BA
:10172000CD692B430D6A2B434D6A2B438D6A2B43A6
:10173000CD6A2B43096B0B43134340F82430002040
:1017400030BC70470C6850F824500F4A2A404D684E
:101750002B43CD682B430D692B434D692B438D697A
:101760002B43CD692B430D6A2B434D6A2B438D6A66
:101770002B43CD6A2B43096B0B43134343F04003C8
:1017800040F82430DBE700BF8100F7FF30B40132BE
:1017900050F8224004F040440B684D6843EA0513BA
:1017A0008D6843EA0523CD6843EA05430D69013D91
:1017B00043EA05534D69023D43EA056389690B43DA
:1017C000234340F82230002030BC7047B3F5804FEF
:1017D00005D06FF0704340F822300020704730B4DD
:1017E00050F82230094C1C400B684D6843EA051341
:1017F0008D6843EA05238D692B43C96843EA014399
:10180000234340F82230002030BC70470000F0CF66
:101810000B6883604B688A681343CA6813430A697C
:101820001343C26822F47F6222F00F021343C360A5
:10183000002070474FF0C04318807047014B18805C
:10184000704700BF0000026008B5094B2A22DA8009
:101850002B221A812C229A80F0225A804FF4A072F7
:101860001A803620FFF7E6FFC820FFF7E7FF08BD24
:1018700014AF0020014B188880B27047000002604E
:1018800070B506460C460B4DE888FFF7D3FFC6F34C
:101890000F20FFF7D3FFF0B2FFF7D0FF2889FFF743
:1018A000C9FFC4F30F20FFF7C9FFE0B2FFF7C6FF7F
:1018B00070BD00BF14AF002030B58DB005460C469A
:1018C000274B5A6942F002025A615B6903F0020336
:1018D0000193019B02212348FFF73AFE224A136835
:1018E00023F0010313601F4B1B6813F0200FFAD184
:1018F0001C4B1B6813F0800FF5D11A4B1B6813F0BB
:10190000100FF0D1174B1B6813F0400FEBD102956D
:10191000164B03934FF48043049300230593402216
:10192000069207934FF4807308934FF480630993F2
:101930000A944FF480530B9302AA02210948FFF73F
:10194000ADFE094A136843F001031360054B1B68A1
:1019500013F0200FFAD01022024B5A600DB030BDA8
:1019600000100240000402401C040240000002601B
:1019700010B5B920FFF75EFFFF20FFF75FFF832060
:10198000FFF75CFF6820FFF759FF1420FEF70EFEFB
:10199000BB20FFF74FFF0020FFF750FF0020FFF7AD
:1019A0004DFF8020FFF74AFF1420FEF7FFFDC22005
:1019B000FFF740FF0020FFF741FF3020FFF73EFF19
:1019C0001420FEF7F3FDC020FFF734FF1B20FFF7C4
:1019D00035FF0520FFF732FF0820FFF72FFFEC202F
:1019E000FFF72CFF0020FFF729FF0120FFF726FF5C
:1019F0001420FEF7DBFDE320FFF71CFF0020FFF7BC
:101A00001DFF4F20FFF71AFF0020FFF717FF4F20A1
:101A1000FFF714FF1420FEF7C9FDBD20FFF70AFFF2
:101A20000020FFF70BFF2020FFF708FF5220FFF7F1
:101A300005FF1420FEF7BAFDBF20FFF7FBFE0120D3
:101A4000FFF7FCFE0420FFF7F9FE2C20FFF7F6FE5F
:101A50001420FEF7ABFDB120FFF7ECFE0020FFF7EE
:101A6000EDFE0220FFF7EAFE0220FFF7E7FE00206E
:101A7000FFF7E4FE2220FFF7E1FE1120FFF7DEFE74
:101A80008D20FFF7DBFE1420FEF790FDB620FFF758
:101A9000D1FEC020FFF7D2FE5520FFF7CFFE422037
:101AA000FFF7CCFE1420FEF781FDE020FFF7C2FE19
:101AB0001320FFF7C3FE2420FFF7C0FE2320FFF70B
:101AC000BDFE2120FFF7BAFE2120FFF7B7FE3F2021
:101AD000FFF7B4FE1620FFF7B1FE5D20FFF7AEFE64
:101AE0000720FFF7ABFE0620FFF7A8FE0920FFF74F
:101AF000A5FE1020FFF7A2FE1720FFF79FFE002093
:101B0000FFF79CFE1E20FFF799FE1E20FFF796FEB2
:101B10001C20FFF793FE1B20FFF790FE2C20FFF701
:101B20008DFE2220FFF78AFE6920FFF787FE07203F
:101B3000FFF784FE0F20FFF781FE1620FFF77EFEE1
:101B40001920FFF77BFE1820FFF778FEFF20FFF734
:101B500075FE1420FEF72AFDB020FFF76BFE0D2066
:101B6000FFF76CFE0120FFF769FE1420FEF71EFD53
:101B70003620FFF75FFE0820FFF760FE3A20FFF7F0
:101B800059FE5520FFF75AFE2D20FFF753FE002483
:101B900005E06000013080B2FFF750FE01341F2CD9
:101BA00006DC0F2CF5DC600080B2FFF747FEF5E79E
:101BB000002403E0A0B2FFF741FE01343F2CF9DD21
:101BC000002405E06000013080B2FFF737FE0134E9
:101BD0001F2C06DC0F2CF5DC600080B2FFF72EFE18
:101BE000F5E72120FFF726FE1120FFF723FE142042
:101BF000FEF7DCFC2920FFF71DFE1420FEF7D6FCC3
:101C00005120FFF717FEFF20FFF718FE5220FFF7C5
:101C100011FEFFF72FFEFFF72DFEFF2800D010BDAD
:101C2000FEE7000010B54FF400712B48FEF730FEC0
:101C3000002844D0002401212848FEF729FE08B9D5
:101C400044F4807402212548FEF722FE08B944F0CE
:101C5000200404212148FEF71BFE08B944F01004BB
:101C600008211E48FEF714FE08B944F004041021B0
:101C70001A48FEF70DFE08B944F002042021174867
:101C8000FEF706FE08B944F0080440211348FEF7A9
:101C9000FFFD08B944F0010480211048FEF7F8FD6B
:101CA00008B944F040040E4B1B889C4209D0002226
:101CB0000C4B1A700A4B1C800B4B188810BD8024EB
:101CC000B9E7084A13780133DBB21370042BF1D95A
:101CD000054B1C80EEE700BF000C014000100140E6
:101CE000E6000020E8000020E400002008B5FFF72F
:101CF00099FF014B188008BD20AF0020124B5B6B91
:101D000013F0450FFAD0104B5B6B13F0040F04D0A7
:101D100004220D4B9A63032070470B4B5B6B13F04F
:101D2000010F05D1084B1B69834205D01020704775
:101D30000120054B98637047034B40F2FF529A63B2
:101D4000586900F00800704700800140474B5B6B0A
:101D500013F4807F2DD010B5454B1B78012B14D088
:101D60000022444B1A70414A936B43F4807393638F
:101D7000D36B23F4434323F03A03D36301223E4B56
:101D80001A703C4B1878C0B210BD3C4900230B6060
:101D90000C244C6040228A60CB604FF480630B615E
:101DA0003248FFF735FD2046FFF7A8FF314B18708A
:101DB000D9E72E4B5B6B13F0020F0BD02B4A02209E
:101DC0009063D36B23F4434323F03A03D363294B4B
:101DD00018707047254B5B6B13F0080F0CD0234A2B
:101DE00008239363D36B23F4434323F03A03D36371
:101DF0000420204B187070471C4B5B6B13F0200FB6
:101E00000CD01A4A20239363D36B23F4434323F06B
:101E10003A03D3630620174B18707047134B5B6B64
:101E200013F0100F0CD0114A10239363D36B23F4DB
:101E3000434323F03A03D36305200E4B18707047D9
:101E40000A4B5B6B13F4007F0DD0084A4FF400730C
:101E50009363D36B23F4434323F03A03D363072004
:101E6000044B187070470020704700BF008001408D
:101E7000E9000020EB000020EA00002028AF00204D
:101E80000023012B16D810B403EB83114A0011462E
:101E9000024492F88D2032B10133DBB2012BF3D929
:101EA000022010BC70470B460833034404338360A0
:101EB0000020F6E70220704790F83930DBB2212B82
:101EC00001D0022070470268036A591C01621B7826
:101ED0005360C38C9BB2013B9BB2C3845BB9026865
:101EE000D36823F08003D3600268D36843F04003D3
:101EF000D36000207047002070470268D36823F049
:101F00004003D3600023838418467047026892F828
:101F10003A30DBB2222B01D002207047D38D9BB226
:101F20007F2B0ED800234371D18D89B2013189B244
:101F3000D185916A481C9062126852680A701846EE
:101F40007047012070470268D36823F49073D36010
:101F50000268536923F001035361202380F83A306B
:101F6000704738B5002832D00546046894F8382008
:101F7000012A2ED0012284F8382094F83A20D2B2D7
:101F8000202A05D00223002284F83820184638BDC4
:101F9000FFF776FF0346C0B900226A71A968A16203
:101FA000E285E263222284F83A202168CA6842F47A
:101FB0008072CA6021684A6942F001024A61216860
:101FC000CA6842F02002CA60DDE70223DBE7012392
:101FD000DCE70223DAE7000030B583B00546046889
:101FE00094F83A30DBB2222B10D094F83A30DBB2BE
:101FF000E02B2AD094F83A30DBB2202B25D094F88D
:102000003930DBB2212B30D003B030BDE38D9BB231
:10201000002BF4D043790133DBB2437102792649B6
:102020008A5C9342EBD92046FFF78DFFAB68E28DC7
:1020300083F88020AB68012283F88120202384F874
:102040003A302846FFF78DFFD9E76B790133DBB2D1
:102050006B712A7918498A5C9342D0D9202384F87D
:102060003A302846FFF77DFFC9E7A38C002BCBD180
:10207000AB792A7910498A5C93421AD9202384F8D3
:102080003930002301932A680C4B9A420BD0019BF4
:10209000002BB9D04FF08052094B1A60BFF34F8F1D
:1020A000BFF36F8FB0E701A9064B18682FF0D4F982
:1020B000EDE70133AB71A7E7541C030864B30020BC
:1020C00004ED00E0D8B5002070B505682B681C68E9
:1020D000DE685B6914F00F0F15D114F0200F02D0E9
:1020E00016F0200F0CD114F0800F02D016F0800FE4
:1020F0004BD114F0400F02D016F0400F49D170BD03
:10210000FFF704FFEFE713F0010302D116F4907F0D
:10211000E9D014F0010F06D016F4807F03D0EA6BEB
:1021200042F00102EA6314F0040F04D01BB1EA6B21
:1021300042F00202EA6314F0020F04D01BB1EA6B12
:1021400042F00402EA6314F0080F04D01BB1EB6BF9
:1021500043F00803EB63EB6B002BC4D014F0200FAB
:1021600002D016F0200F06D1EB6B13F0080F05D14B
:102170000023EB63B7E7FFF7C9FEF5E72846FFF753
:10218000E2FEE02385F83A30ADE72846FFF794FEFB
:1021900070BD2846FFF7B1FEB1E7000008B5094B56
:1021A0001B681A6912F0010F03D0DA6812F0010FF0
:1021B00000D108BD6FF001021A610348FFF70CFF60
:1021C000F7E700BFA4B30020C8B1002030B593B03A
:1021D00005460C4601A811F0CBF8019500230A939F
:1021E00064420B94034B049301A811F011F913B04E
:1021F00030BD00BFE160000870B59AB0B04BB3F9D4
:1022000000300133202B27D8DFE813F021002C0009
:102210006100B400F00015014C0152017801C001C9
:10222000F901FF012D0242025B02A502C802CE02A3
:102230003A037203E103EB03F3034E048804F6044C
:102240001C052D052600260034052600400512F049
:10225000AFFA02A812F0ACFC994A1388013313803C
:102260001AB070BD10F024FE00F0ACFD002127F084
:102270007FFA944C2060322127F050FB266810F042
:1022800017FE10F01BFE054610F012FE10F02BFE9C
:1022900005EBD575024645F34F01304602F080FC50
:1022A000206827F08BFB09211FF05CFC00212068CF
:1022B0001BF05EF904464622642102F071FC002105
:1022C000204624F0DFFE804924F040FDC4E710F0F2
:1022D000EFFD00F077FD00212BF0E6FB044610F047
:1022E000E7FD10F0EBFD054610F0E2FD10F0FBFD00
:1022F00000EBD07005EBD57540F34F0245F34F016D
:10230000204602F04DFC002500952B46062229466A
:10231000204601F02FFF6D4920462BF0E7FA6C496B
:1023200020462BF0E3FA0646294620F079FA962259
:10233000114602F035FC2946304625F0D9F8142222
:10234000A02101F057FE634920462BF0CFFA6249E5
:1023500020462BF0CBFA642120462AF04FFF0122C1
:10236000114620462AF0B8FF4FF48C712046FFF743
:102370002DFF71E7534D002128681BF0F9F8044642
:102380004622642102F00CFC544A0021204603F04E
:102390006BFA2021204604F005FC09A810F0E8FFA4
:1023A0000994642312934E4A0A920F931093C82201
:1023B000119215934FF6FF73ADF85C3009A811F038
:1023C00027F84FF4FA712046FFF700FF002120465E
:1023D00024F058FE0446434B0C22434924F078FD78
:1023E00001222146286827F0D7FB35E710F060FD71
:1023F00000F0E8FC00212CF021FB3C4C2060314B2C
:1024000019680A230093122201F0B4FE246810F028
:102410004FFD10F068FD014600280ADB41F38F01F3
:10242000204602F039FC3249304B18682BF00AFE86
:1024300012E7C11CF2E7234E002130681BF098F828
:1024400004464622642102F0ABFB2A4B7F22002186
:10245000204603F05CFA204601F000F9214630687E
:102460001BF086F8054601240094234622462146A7
:102470001FF098FB204B6E220021284603F047FAFC
:102480007F236C220021284603F029FA234661228B
:102490000021284603F00BFA22462946306827F02F
:1024A0007BFBD9E60121114B18682CF045FAD3E6E5
:1024B000044B186827F082FA02211FF053FBCBE689
:1024C00010000020EC0000205C1C0308741C0308B2
:1024D0007C1C0308841C0308901C0308F4000020E3
:1024E000694C0008941C03089C1C0308F800002099
:1024F000B01C0308C01C0308D01C0308CE4C0021EC
:1025000020681AF09DFE05464FF4FA62CB491AF096
:10251000D9FF4FF47A7128461AF06AFF01224FF46E
:10252000E16128461AF05AFE0122C54928461AF0F0
:102530002DFFAA212846FFF749FE0021206829F037
:10254000B5FA054664211AF053FF012241F28831A1
:1025500028461AF043FE4FF488712846FFF736FEEE
:10256000002120682AF0C0FA054601212AF068FB04
:10257000294620682AF0B8FA044601212AF07EFB99
:1025800040F2DA212046FFF721FE65E610F090FCCC
:1025900000F018FC00212DF0A3FF044610F088FC89
:1025A00010F08CFC054610F083FC10F09CFC00EB56
:1025B000D07005EBD57540F34F0245F34F0120462F
:1025C00002F0EEFA002500952B4606222946204609
:1025D00001F0D0FD9B4920462EF0CCF89A492046C8
:1025E0002EF0A0F8994920462EF09CF89B21204619
:1025F000FFF7ECFD294620461CF09EFE2CE6944990
:10260000944B18682CF030FE26E610F051FC00F0D8
:10261000D9FB002123F0CCF90546012123F0C8FBAA
:1026200009A810F0A5FE099510F042FC10F05BFC23
:10263000064610F03DFC10F056FC84B2284601F02E
:10264000F3FA83B2E31A1BB20F9610961193352357
:102650001293814B0A9309A810F0DAFE76212846DE
:10266000FFF7B4FDF8E50021734B186821F09EF8E0
:1026700004467A4920F0D0FF204621F0CFFA02210B
:10268000204621F061F8A1212046FFF79FFDE3E5F8
:102690000021694B186828F0CBFF044601226F49DE
:1026A00028F03CFF3221204627F038F90122022190
:1026B000204628F0E9FA40F2FE312046FFF786FD79
:1026C000CAE55D4D0021286819F02AFF044609A8D3
:1026D00010F04EFE0994B4230F9310934FF4C87377
:1026E0001193322312936FF04A03139364231593CB
:1026F0000323ADF85C305A4B0A9309A810F088FE0A
:102700000021286824F07AFF044601220146286847
:1027100027F042FA5021204624F0DAFF09A810F0F1
:1027200027FE099400230F9310935A2311939623A5
:1027300012934C4B0A9309A810F06AFE4FF4A5714E
:102740002046FFF743FD2146286824F057FF3C212F
:10275000FFF73CFD80E510F0ABFB00F033FB002100
:1027600026F0B8F90446404926F0D8FA3F492046F9
:1027700026F082FA204626F095FB022201211BF06A
:10278000ABFC9621204626F021FB002100916FF042
:1027900009030822204601F0EDFC5DE500212D4BE8
:1027A00018682CF0C9F857E510F082FB00F00AFB1E
:1027B00000212DF07DF8044603222D492DF066FB03
:1027C0006421204627F0AAF89B212046FFF7FEFC53
:1027D0000021204624F056FC264924F0B7FA0021B7
:1027E000204624F04FFC244924F0B0FA10F060FB9E
:1027F00010F079FB02460021204601F0FBFB00218E
:10280000204624F03FFC1D4924F0A0FA10F050FBB4
:1028100010F054FB054610F04BFB10F064FB024631
:102820002946204601F0E6FB01231A4619462046B8
:102830002DF000F910E500BFEC00002018FCFFFFB0
:102840000CFEFFFFD41C0308901C0308E41C0308C3
:10285000E81C0308F8000020CD400008801D030894
:102860006DC3010879770208B01D03080400002039
:1028700014000020E41D0308F01D0308FC1D0308DC
:10288000CB4C23786FF30403237023886FF34A1330
:102890002380C3F3072343F0F8036370A37843F066
:1028A0001F03A37063886FF34A1363801B0A6FF3DF
:1028B000C703E370BF4E0021306822F0BDF9054622
:1028C0002246022122F032F81E220021284622F060
:1028D00071F83C220121284622F06CF80122294699
:1028E000306827F059F974212846FFF76FFCB3E4EC
:1028F0000021B04B186825F057FE0546AE4CAF4A94
:10290000214625F055FD0A21FFF760FCAC4A21461F
:10291000284625F04DFDAB4A2146284625F048FDC6
:10292000A94A2146284625F043FD3221FFF74EFCF7
:10293000A64A2146284625F03BFD8C21FFF746FCA0
:10294000A34A2146284625F033FD3C21FFF73EFCF3
:102950000021284625F0D8FA012125F0FFFE40F29B
:1029600009112846FFF732FC10F0A2FA00F02AFA0B
:10297000294625F019FE0546062125F095FE002280
:102980001146284601F036FB10F092FA10F096FA44
:102990000146284602F068F98E4A2146284625F06D
:1029A00007FD0021284625F0AFFA012125F0D6FECB
:1029B000894A2146284625F0FBFC884A21462846BC
:1029C00025F0F6FCEB212846FFF700FC44E4844C9C
:1029D0000A2120682BF086FD824920682CF044FCF7
:1029E0003AE4744B186826F0E9FF09211FF0BAF8A1
:1029F00032E47B4C002120682BF074FD30212068EC
:102A00002CF0D2F9312120682CF0CEF93221206847
:102A10002CF0CAF9332120682CF0C6F93421206843
:102A20002CF0C2F9352120682CF0BEF9362120683F
:102A30002CF0BAF9372120682CF0B6F9382120683B
:102A40002CF0B2F9392120682CF0AEF94121206830
:102A50002CF0AAF9422120682CF0A6F94321206825
:102A60002CF0A2F9442120682CF09EF94521206821
:102A70002CF09AF9462120682CF096F94E492068EE
:102A80002CF054FA584920682CF050FA5749206825
:102A90002CF04CFA564920682CF048FA5549206829
:102AA0002CF044FAFFF7D8BB424D0021286829F0EA
:102AB000FFFC04460322062129F058FC41F22E6156
:102AC000204629F02FFC0A21204629F0A7FC2046A9
:102AD00029F0F2FD204629F0EFFD204629F0ECFD1B
:102AE0006421204629F09AFC204629F0E5FD204685
:102AF00029F0E2FD0121204629F090FC204629F032
:102B0000DBFD204629F0D8FD73212046FFF75EFB50
:102B10008221286827F096F9FFF79EBB254E0021F9
:102B200030681EF06BF804464FF600011EF06CF999
:102B300005462422014620461EF004FB6FF01C02CD
:102B4000294620461EF0FEFA3322294620461EF072
:102B5000F9FA6B22294620461EF0F4FA462229464D
:102B600020461EF0EFFA2422294620461EF0EAFAFB
:102B70006FF00102294620461EF0E4FA3F22294662
:102B800020461EF0DFFA3022294620461EF0DAFAEF
:102B90004822294620461EF0D5FA96212046FFF706
:102BA00015FB8221306827F04DF9FFF755BB00BFB8
:102BB000F0000020EC0000202C1E0308081E030873
:102BC000301E0308541E0308781E03089C1E0308C9
:102BD000C01E0308E41E0308001F03081C1F03088F
:102BE000F8000020381F0308901C0308501F03083A
:102BF000541F0308581F03082C4C002120681EF0A6
:102C0000A9FB05462A491EF08FFB78212846FFF7CD
:102C1000DDFA294620681EF09DFB054601211EF0C5
:102C200013FC294620681EF095FB05461EF03CFC6F
:102C30006E212846FFF7CAFA8221206827F002F9A0
:102C4000FFF70ABB14211B4B18682BF04BFC002428
:102C500005E0184B18682CF0E9FA0134A4B23F2CB7
:102C6000F7D9FFF7F9BA0121124B18682BF064FE6F
:102C7000FFF7F2BA0D4B186826F0B2FE0D4C206833
:102C800003F0FCF900232360FFF7E6BA10F010F917
:102C900000F098F803F03CFA0022044B1A604FF65B
:102CA000FE72054B1A80FFF7D7BA00BFEC00002078
:102CB0005C1F0308F80000201000002010B588B049
:102CC000002303223221114812F080FE104C2046CE
:102CD00004F0F4FEFF222C21204605F035FA0D4BBE
:102CE0001A8842F22901204605F06EF92922B22104
:102CF000204605F0A9F84FF4FA72B021204605F0FD
:102D0000A3F801A811F054FF08B010BDF921000884
:102D1000F4000020FC1B03082DE9F04180460D461D
:102D20001746B1F9026015E03146B5F90000FEF72B
:102D3000A7FD0D4B9888FEF77DFDB5F90440B5F968
:102D40000030E41A013421463846FEF7B5FD07EBA2
:102D500044070136B5F906309E42E5DD404610F0E5
:102D600009F9BDE8F08100BF14AF002008B5FEF7F7
:102D7000FFFDFEF769FD08BD10B58CB0FFF7F6FF4B
:102D80000C4C4FF448630C4A0C49204610F083F871
:102D900001A810F055F84FF4A073ADF80430F023FB
:102DA000ADF80630064B0493029401A810F018F910
:102DB0000CB010BDFC320020FC190020FC000020EB
:102DC000192D000808B5034610B12BB1D86B08BD0A
:102DD00010F06EF80346F8E7002008BD08B503467A
:102DE00010B12BB1186C08BD10F062F80346F8E77B
:102DF000002008BD08B5034610B12BB1986C08BD82
:102E000010F056F80346F8E7002008BD08B5034661
:102E100010B12BB1D86C08BD10F04AF80346F8E7A2
:102E2000002008BD10B5002401E000F0E3FD30B142
:102E300090F8343013F0200FF7D00446F5E714B1C2
:102E4000204601F0ADF810BD2DE9F843037D13F0E5
:102E5000010F5FD1904689460646C46801270025C8
:102E6000002C42D00123002D4BD0002B4CD1002C44
:102E7000F6D00021206801F03DFF10F0200FEFD1C7
:102E8000206800F0ADFF0028EAD1F3689C4241D0F1
:102E900083B11868C369002217219847F36800229C
:102EA0000E21186800F030FD012833D1F36818684E
:102EB00001F03EF8F4602068C369002216219847AB
:102EC000F36800220D21186800F01EFD012821D1B1
:102ED000F3681868FFF7A6FFF368186801F028F890
:102EE0003369BBB13046984714E0337D13F0100FBF
:102EF00000D17DB977B13046C847044600273B462C
:102F0000B1E73CB12546B0E721463046C04704460C
:102F10008542ACD1BDE8F88308B51821014811F00D
:102F200003F908BD54B5002008B5024A0249FFF76D
:102F30008BFF08BDC9410108B541010808B5024A27
:102F40000249FFF781FF08BDD7410108BF410108D1
:102F500038B50446037DC3F3001543F01003037531
:102F600013F0080F06D0FFF7E9FF237D65F3041384
:102F7000237538BDFFF7D8FFF7E7000088B370B5B9
:102F800005460C46064611F015F938B10368A34210
:102F90001CD00146304611F017F9F6E7A36B33B1A8
:102FA000204603F0D1F810B1A06BFFF7D1FFA56365
:102FB000284611F0E0F8064610F0A2FF38B12EB115
:102FC0003460284611F0F6F8864206D070BD3246CD
:102FD0000023044810F09AFFFEE72846FFF7B8FFE9
:102FE000F4E770477C1F0308F8B5876B002F42D0C9
:102FF0000546FB681B68984212D0FB681B689D421F
:103000002CD03E46384611F0D5F804469CB32368D0
:103010009D4226D02146304611F0D6F80446F5E709
:103020003B7D13F0010F03D03B7D6FF300033B7535
:10303000384611F0BFF8FB68834203D03846FFF7EB
:1030400087FFDAE7384611F0BAF8FB688342F5D11A
:103050001868C369002217219847CEE70023FB6058
:10306000CFE72146384611F0F2F8204611F06AFB0E
:103070000023AB63F8BDF8BD18B1C3681BB1186875
:1030800070470020704700207047F8B138B50446FB
:10309000037DC3F34003994213D0037D61F34103E1
:1030A0000375FFF7E9FF054658B1C36900221621F1
:1030B0009847E36800220D21186800F025FC0128DC
:1030C00000D038BD284600F033FFFAE770470028EB
:1030D0004ED0F8B50546866B56B3337D13F0010F1D
:1030E00026D1F36813B11B68984221D000213046E5
:1030F000FFF7CBFF3746304611F05CF80446BCB111
:1031000023689D4205D02146384611F05DF80446FB
:10311000F5E7F3688BB11868C36900221721984757
:10312000F36800220E21186800F0EEFB012800D0A1
:10313000F8BDF368186800F0FBFEF4602068C3690E
:1031400000221621984733690BB130469847F3683F
:1031500000220D21186800F0D7FB0128E8D1F368A0
:10316000186800F0E5FEF3681868FFF75BFEF8BD2D
:10317000704718B1007DC0F34000704700207047D1
:1031800010B5044620B909E0204600F033FC04469F
:10319000204601F093FA08B1002CF5D1204610BD6D
:1031A000014B1868704700BF2033002008B1007839
:1031B0007047002070470000B0B1034690F85020DF
:1031C00042F0020280F85020174A1268904204D060
:1031D00039B1DA6B914204D070470020134A106075
:1031E000F6E70022DA63704710B50C4600200FF0B6
:1031F0007FFF07E000220D4B1A600EE00023C3633F
:103200000FF076FF78B190F8503043F0020380F869
:103210005030054B1B689842ECD0002CEED0C36BAD
:103220009C42EDD1EAE710BD20330020243300207A
:1032300008B500210846FFF7BFFF08BD10B50446DA
:1032400090F850306FF3000380F850300FF06AFFB1
:10325000E0640FF067FFA06410BD034648B1027838
:10326000012A0AD0032A08D04FF6FF730B804B8047
:10327000704700230B804B807047B3F920200A80F1
:10328000B3F922304B807047024658B10378012BC6
:1032900003D0032B01D00020704792F84600C0F302
:1032A0004000704700207047034640B10278012A71
:1032B00009D0032A07D000230B804B8070470023DE
:1032C0000B804B807047B3F928200A80B3F92A306D
:1032D0004B80704738B30278012A01D00120704733
:1032E00090F8462012F0020F01D10120704710B56E
:1032F00090F846206FF3410280F8462000220286B3
:103300004286406BFFF73CFF044670B1C369002260
:1033100013219847012800D010BD00220921204622
:1033200000F0F2FA10BD012070470120F4E728B147
:1033300090F8503043F0080380F850307047000098
:10334000014B1868704700BF24330020054B1B68F1
:1033500000E09B682BB11A688242FAD101221A71EF
:10336000F7E770472C330020502817D00CD9FF28DE
:1033700014D02ED86E2811D026D97F280ED09128AF
:103380000CD0722815D109E0182809D9332816D88D
:10339000302803D2202801D02C280AD101207047E0
:1033A0001528FBD2072806D80428F7D201380128AF
:1033B000F4D90020704710380328FAD8EEE74028E7
:1033C000ECD04228F5D1E9E75428E7D06028F0D1C5
:1033D000E4E748F283039842E0D00CD948F2A00316
:1033E0009842DBD048F2AD039842D7D048F28E0322
:1033F0009842DED1D2E748F20C039842CED0D8D31F
:10340000A0F5004080380128D3D8C7E7F8B50E46AC
:103410001546071D384610F0CDFE044617E0B2B23F
:10342000238A13442382ABB2618A19446182A18A40
:103430000A44A282E28A1344E3822A4631462046A5
:10344000FFF7E4FF2146384610F0BEFE0446002C8C
:10345000E5D1F8BD38B504460D46BC222EF084FBFC
:10346000002800F08680B4F99220B5F992309A4293
:1034700001D0022038BDB4F99420B5F994309A42B5
:1034800001D0022038BDB4F99820B5F996309A429F
:1034900001D0022038BDB4F99620934201D0022019
:1034A00038BDB4F99A20B5F99A309A4201D0022079
:1034B00038BDB4F99C20B5F99C309A4201D0022065
:1034C00038BDB4F99E20B5F99E309A4253D1B4F973
:1034D000A020B5F9A2309A424FD1B4F9A22093426C
:1034E0004DD1B4F9A620B5F9A6309A4249D1B4F924
:1034F000A820B5F9A8309A4245D1B4F9AA20B5F967
:10350000AA309A4241D1B4F9AC20B5F9AC309A4214
:103510003DD1B4F91A20B5F91A309A4239D1B4F92B
:103520001C20B5F91C309A4235D1226C2B6C9A4282
:1035300033D194F8502095F850309A422FD1B4F9F5
:103540002820B5F928309A422BD1B4F92220B5F9B8
:1035500022309A4227D1B4F92420B5F924309A4276
:1035600023D1B4F92620B5F926309A421FD0022083
:1035700038BD002038BD022038BD022038BD0220F1
:1035800038BD022038BD022038BD022038BD0220DF
:1035900038BD022038BD022038BD022038BD0220CF
:1035A00038BD022038BD022038BD022038BD0120C0
:1035B00038BD0000244B1B7803B1704700B585B0BF
:1035C00011F050F812F03AFA10F0DEFC0FF0AEFEF7
:1035D000FFF7A2FC10211D4810F0A6FD4FF4C071AA
:1035E0001B4810F0A1FD60211A4810F09DFD162324
:1035F0004FF0000063F30400282262F34A106FF3D7
:10360000CF204FF0000163F30401342363F34A1128
:10361000082363F3CF21104B0293019300930222FE
:1036200018F016F912F0DCFF03F008FFFFF700FEB8
:103630000EF046FB01200DF0ADFE0122024B1A7088
:1036400005B05DF804FB00BF30330020A4B40020B7
:1036500000B40020F4B300204000002010B5044660
:1036600010F04EFC28B922460023044810F04EFC0E
:10367000FEE72146024810F017FB10BD8C1F03081F
:10368000ED600008F8B504460F4615461E4610F0DA
:1036900037FC60B1BD42B8BF3D4684F83050BDF93B
:1036A0001830B342B8BF334684F83130F8BD2246F3
:1036B0000023024810F02AFCFEE700BF8C1F03081D
:1036C00038B504460D4610F01BFC40B16DB9002220
:1036D00094F8343062F3C71384F8343038BD22468E
:1036E0000023034810F012FCFEE70122F0E700BFC0
:1036F0008C1F030838B504460D4610F001FC30B1AC
:1037000094F8343065F3000384F8343038BD224631
:103710000023024810F0FAFBFEE700BF8C1F0308ED
:1037200038B504460D4610F0EBFB58B11DB1012130
:103730002046FFF7DFFF94F8343065F3410384F847
:10374000343038BD22460023014810F0DFFBFEE78D
:103750008C1F030838B504460D4610F0D1FB68B144
:1037600094F8353065F3840384F8353003F01C0396
:103770001BB101212046FFF7D3FF38BD22460023AD
:10378000014810F0C3FBFEE78C1F030838B5044660
:103790000D4610F0B5FB30B194F8343065F3820378
:1037A00084F8343038BD22460023024810F0AEFBC6
:1037B000FEE700BF8C1F030838B504460D4610F025
:1037C0009FFB30B194F8343065F3C30384F8343090
:1037D00038BD22460023024810F098FBFEE700BFE8
:1037E0008C1F030838B504460D4610F089FB28B13C
:1037F00094F83C301D4384F83C5038BD22460023E9
:10380000014810F083FBFEE78C1F030838B504461F
:103810000D4610F075FB30B194F83C3023EA0503F7
:1038200084F83C3038BD22460023024810F06EFB7D
:10383000FEE700BF8C1F030838B504460D4610F0A4
:103840005FFB08B1A56138BD22460023014810F096
:103850005DFBFEE78C1F03082DE9F04184B00746AD
:1038600015461E460C4621B1084610F049FB0028BB
:1038700034D0019400238DF8083003931F4B1B684C
:1038800003B1039301AA1D4B1A601D4BD3F80080AE
:103890001E60FFF785FC18B183680BB12946984775
:1038A00017B129462046B847154BC3F80080134B83
:1038B0001A6892681A609DF80830ABB9C4B194F8E0
:1038C000343013F0400F15D02068A8B13246294695
:1038D00000F01AF8012808D0002006E02246002354
:1038E000084810F013FBFEE7002004B0BDE8F081AB
:1038F0000120FAE70120F8E70120F6E72C33002049
:10390000283300208C1F030898B170B50446164672
:103910000D4610F0F5FA28B922460023064810F0AB
:10392000F5FAFEE733462A462146A069FFF794FFE1
:1039300070BD0120704700BF8C1F0308014B186841
:10394000704700BF2833002038B504460D4610F0FC
:10395000D7FA08B1E56138BD22460023014810F0CE
:10396000D5FAFEE78C1F030820B110B5C4691CB15D
:10397000A04710BD01207047012010BD38B5044696
:103980000D4610F0BDFA08B1256238BD224600236D
:10399000014810F0BBFAFEE78C1F030838B5044657
:1039A0000D4610F0ADFA28B922460023064810F063
:1039B000ADFAFEE72946606A11F00FF8034600B140
:1039C0006062184638BD00BF8C1F030810B504465E
:1039D00010F096FA28B922460023054810F096FA0E
:1039E000FEE700226286E36906212046984710BD63
:1039F0008C1F030810B5044610F082FA08B1206845
:103A000010BD22460023024810F080FAFEE700BFF6
:103A10008C1F030810B5044610F072FA30B9224624
:103A20000023064810F072FAFEE71C462046FFF716
:103A3000E1FF03460028F8D1204610BD8C1F030883
:103A400070B5044610F05CFAB8B123681BB120468B
:103A5000FFF7E0FF0446104810F0ACFB0546C5B187
:103A600005F13006304610F0A5FB60B1844210D05D
:103A70000146304610F0A8FBF7E72246002307482E
:103A800010F044FAFEE72946034810F09DFB054676
:103A9000E5E7284670BD00BF00B400208C1F030876
:103AA00038B504460D4610F02BFA28B155B1294619
:103AB000201D10F089FB38BD22460023034810F07A
:103AC00025FAFEE7201D10F075FB38BD8C1F03089A
:103AD00038B505460021FFF7E3FF044604E0214620
:103AE0002846FFF7DDFF044674B194F8353003F043
:103AF0006003602BF3D1002205212046FFF734FF3D
:103B00002046FFF7E5FFEAE738BD032900D97047F3
:103B100010B5044690F8353061F3461380F835301F
:103B200000220521FFF720FF2046FFF7D1FF10BD3F
:103B300038B504460D4610F0E3F928B155B12946D1
:103B4000201D10F048FB38BD22460023034810F02A
:103B5000DDF9FEE7201D10F032FB38BD8C1F030895
:103B600038B504460D4610F0CBF920B104F110032E
:103B7000294608220AE022460023064810F0C6F92A
:103B8000FEE713F8010B01F8010B013A002AF8D106
:103B900038BD00BF8C1F030810B5044610F0B0F903
:103BA00028B922460023084810F0B0F9FEE7204665
:103BB000FFF720FF034620B1208A1B8AC01A00B2FB
:103BC00010BDB4F9100010BD8C1F030810B50446D9
:103BD00010F096F928B922460023084810F096F90B
:103BE000FEE72046FFF706FF034620B1608A5B8AA6
:103BF000C01A00B210BDB4F9120010BD8C1F03082A
:103C000010B5044610F07CF930B1A08A238AC01A9E
:103C100080B2013000B210BD22460023014810F0EE
:103C200075F9FEE78C1F030810B5044610F068F91B
:103C300030B1E08A638AC01A80B2013000B210BD90
:103C400022460023014810F061F9FEE78C1F0308AB
:103C500010B5044610F054F920B194F8490000F072
:103C6000010010BD22460023014810F04FF9FEE785
:103C70008C1F030809B92830704700B583B08DF850
:103C80000010002301936A460821FFF76DFE01280A
:103C900003D1019803B05DF804FB0020FAE70000AF
:103CA0002DE9F8430746884691461E46194810F00C
:103CB00086FA044606E0A3884B4515D0B9F1FF0FFC
:103CC00012D02C461CB3B44221D02146114810F02A
:103CD00082FA05462068B842F3D1A1794145EAD07D
:103CE000B8F1FF0FEDD1E6E7FFF7C4FF04F0C6FD22
:103CF000A18804F014F8002120460FF05DFB214656
:103D0000044810F0A4FA204610F01CFDD9E7BDE8E5
:103D1000F88300BFA4B4002038B504460D46FFF771
:103D2000A9FF38B104F0B3FD0023FF222946204645
:103D3000FFF7B6FF38BD70B505460E4600243F2C90
:103D40000BD821462846FFF795FF30B1427966F33C
:103D5000C30242710134E4B2F1E74024FF2C0BD0DE
:103D600021462846FFF786FF30B1427966F3C30249
:103D700042710134E4B2F1E770BD000038B5046867
:103D8000164810F017FA002503E00146134810F01A
:103D90001BFA78B1A042F8D0026823689A42F4D1A5
:103DA000436823F07F42636823F07F439A42ECD15B
:103DB0000125EAE73DB12146084810F048FA2046BF
:103DC00010F0C0FC38BDA1792068FFF753FF04F064
:103DD00055FDA18803F0A3FFEDE700BFA4B40020C8
:103DE00010B5044610F08CF820B194F83400C0F3FC
:103DF000001010BD22460023014810F087F8FEE7AE
:103E00008C1F03082DE9F04182B004460D46FFF7F0
:103E1000E7FF20B10026304602B0BDE8F08106463B
:103E20002046FFF7F7FD0746FFF70AFE8046FEF73C
:103E3000C9FF874210D04046FEF7D0FF87420BD023
:103E40004046FEF7D7FF874206D04046FEF7DEFF2A
:103E5000874201D00126DEE7B4F9327004F1100187
:103E60006A46082304E011F8010B02F8010B013B3C
:103E7000002BF8D1BBB2BDF80020D21AADF800205B
:103E8000BDF80220D21AADF80220BDF804201A4471
:103E9000ADF80420BDF806201344ADF806306A469C
:103EA000294628460FF07FFB07460028B3D020465E
:103EB000FFF7A0FD04468CB104F110022946284604
:103EC0000FF071FB0028A6D02046FFF789FF0028DD
:103ED000A1D12046FFF78EFD0446ECE73E469AE767
:103EE00030B583B005460C4610F00AF818B12246EA
:103EF000694608230AE02A4600230C4810F006F819
:103F0000FEE712F8010B01F8010B013B002BF8D181
:103F100069462846FFF776FF28B12846FFF790FD4F
:103F2000694603F08CFA03B030BD00BF8C1F030854
:103F300030B583B004460FF0E3FF30B1B4F932304E
:103F400004F11000694608220AE0224600231348C3
:103F50000FF0DCFFFEE710F8015B01F8015B013AAE
:103F6000002AF8D19BB2BDF80020D21AADF800208B
:103F7000BDF80220D21AADF80220BDF804201A4480
:103F8000ADF80420BDF806201344ADF806306946AC
:103F90002046FFF7A5FF03B030BD00BF8C1F03080C
:103FA00070B505460FF0ACFF28B92A46002310482B
:103FB0000FF0ACFFFEE72846FFF71CFD0446061D88
:103FC000304610F0F7F8854210D02046FFF7B0FFDA
:103FD00001232A463146304610F08EF9E3692A461D
:103FE0000121204698472046FFF7A2FF70BD00BF81
:103FF0008C1F03082DE9F04383B004460D46164696
:104000000FF07EFF002840D027682FB13B8A1D4467
:104010002DB27B8A1E4436B2238AED1AADB20FFA56
:1040200085F8638AF61AB6B20FFA86F9B8F1000F6E
:1040300002D1B9F1000F25D02046FFF779FF69467C
:104040002046FFF78DFD238A2B442382638A334465
:104050006382A38A1D44A582E38A1E44E6824A46FF
:1040600041462046FFF7D2F9E3696A46022120461D
:10407000984727B1FB6922460121384698472046D8
:10408000FFF756FF03B0BDE8F08322460023024845
:104090000FF03CFFFEE700BF8C1F030838B5044655
:1040A0000D460FF02DFF28B92246002306480FF0D9
:1040B0002DFFFEE72046FFF789FD024629462046F0
:1040C000FFF798FF38BD00BF8C1F030838B50446C2
:1040D0000D460FF015FF28B92246002306480FF0C1
:1040E00015FFFEE72046FFF757FD2A46014620460A
:1040F000FFF780FF38BD00BF8C1F0308F0B583B009
:1041000004461D469DF8206001F1100001AB04F14A
:1041100010010FF0D9FB2046FFF76CFCB0F91070CE
:10412000B0F91230BDF80420BDF92410114489B251
:10413000BDF80600BDF92820024492B2C91B09B29D
:10414000ADF80410D21A12B2ADF8062005B11EB9AE
:1041500035B94EB903B0F0BD2046FFF74BFFF9E784
:104160002046FFF79BFFF5E711462046FFF7AEFF1D
:10417000F0E700002DE9F04184B004460D4690467A
:104180001F46BDF928600FF0BBFE28B92246002368
:1041900016480FF0BBFEFEE74DB128460FF0B0FE0B
:1041A00050B92A46002311480FF0B0FEFEE7204622
:1041B000FFF720FC0546F0E70296019701230093E4
:1041C000424629462046FFF799FF84F84880A4F824
:1041D0004470A4F84660256494F849306FF34103B5
:1041E00084F8493004B0BDE8F08100BF8C1F03089B
:1041F0002DE9F04F83B0804601900F4616469A464F
:104200009DF830B0FFF7C8FC05464046FFF7DEFCDE
:1042100004464046FFF7F4FC00EBD07040F34F0932
:104220004046FFF701FD00EBD07040F34F08142E1D
:1042300026D8DFE816F0150052005900650070001E
:104240007B008B009A00A600B600BD00C900D40018
:10425000DF00EF00FE00050111011C0127013701FD
:104260003846FFF7CDFC00EBD070C9EB60052DB2EE
:104270003846FFF7D9FC00EBD070C8EB600424B2DD
:104280000198FFF7B7FBB7F91020B7F912E0B0F9C2
:104290001070B0F91230BDF93410114489B22944BC
:1042A00089B2BDF93820724492B2224492B2C91B3D
:1042B00009B2D21A12B2BAF1000F03D0BBF1000F4B
:1042C00040F0FF80BAF1000F40F0FF80BBF1000F1B
:1042D00040F0FF8003B0BDE8F08FC9F100052DB2BA
:1042E000C8F1000424B2CBE73846FFF789FC00EBA5
:1042F000D070C9EB60052DB2C8F1000424B2BFE74D
:104300003846FFF77DFC85B2A5EB09052DB2C8F153
:10431000000424B2B4E7C9F100052DB23846FFF716
:1043200083FC84B2A4EB080424B2A9E73846FFF763
:1043300067FC00EBD070C9EB60052DB23846FFF783
:1043400073FC84B2A4EB080424B299E73846FFF763
:1043500057FC85B2A5EB09052DB23846FFF764FC82
:1043600084B2A4EB080424B28AE7C9F100052DB297
:104370003846FFF759FC00EBD070C8EB600424B25C
:104380007EE73846FFF73CFC85B2A5EB09052DB268
:104390003846FFF749FC00EBD070C8EB600424B24C
:1043A0006EE7C9F100052DB2C8F1000424B267E739
:1043B0003846FFF725FC00EBD070C9EB60052DB245
:1043C000C8F1000424B25BE73846FFF719FC85B258
:1043D000A5EB09052DB2C8F1000424B250E7C9F1DC
:1043E00000052DB23846FFF71FFC84B2A4EB080489
:1043F00024B245E73846FFF703FC00EBD070C9EB69
:1044000060052DB23846FFF70FFC84B2A4EB080418
:1044100024B235E73846FFF7F3FB85B2A5EB090573
:104420002DB23846FFF700FC84B2A4EB080424B296
:1044300026E7C9F100052DB2C8F1000424B21FE738
:10444000C9F100052DB23846FFF7EEFB00EBD07046
:10445000C8EB600424B213E7C9F100052DB2384659
:10446000FFF7E2FB84B2A4EB080424B208E7384665
:10447000FFF7C6FB85B2A5EB09052DB2C8F1000414
:1044800024B2FDE63846FFF7BBFB85B2A5EB090574
:104490002DB23846FFF7C8FB00EBD070C8EB6004C4
:1044A00024B2EDE63846FFF7ABFB85B2A5EB090574
:1044B0002DB23846FFF7B8FB84B2A4EB080424B24F
:1044C000DEE60198FFF796FD04E70198FFF7E6FDA9
:1044D00000E711460198FFF7F9FDFBE62DE9F041F1
:1044E00084B004460D4690461F46BDF928600FF083
:1044F00007FD28B92246002316480FF007FDFEE706
:104500004DB128460FF0FCFC50B92A460023114853
:104510000FF0FCFCFEE72046FFF76CFA0546F0E7DB
:104520000296019701230093424629462046FFF751
:104530005FFE84F84880A4F84470A4F846602564BF
:1045400094F8493043F0020384F8493004B0BDE8E0
:10455000F08100BF8C1F030810B582B004460FF035
:10456000CFFC88B194F8493013F0020F12D0B4F99F
:10457000443094F84820B4F946100091216C20464C
:10458000FFF7ACFF02B010BD2246002307480FF032
:10459000BDFCFEE7B4F9443094F84820B4F9461065
:1045A0000091216C2046FFF7E5FDEBE78C1F030827
:1045B00038B505460021FFF773FA044612E020469D
:1045C000FFF7B6FCE3690022042120469847204605
:1045D000FFF7AEFC2046FFF7EBFF21462846FFF72A
:1045E0005FFA0446002CEAD138BD000038B5044615
:1045F0000D460FF085FCF0B194F8343013F0100F35
:1046000002D12046FFF794FCDDB9002294F8343043
:1046100062F3041384F8343013F0100F02D12046F3
:10462000FFF786FC2046FFF7E5F918B1C569224679
:104630000121A84738BD2246002303480FF066FC3D
:10464000FEE70122E2E700BF8C1F030830B583B00C
:1046500004460FF055FC30B1B4F9323004F11000CB
:10466000694608220AE02246002313480FF04EFC58
:10467000FEE710F8015B01F8015B013A002AF8D16E
:104680009BB2BDF80020D21AADF80020BDF8022080
:10469000D21AADF80220BDF804201A44ADF8042067
:1046A000BDF806201344ADF8063069462046FFF7F2
:1046B000A9FB03B030BD00BF8C1F030890F8340085
:1046C000C0F3C000704790F83500C0F34000704759
:1046D00010B504460FF014FC08B1002010BD2246AE
:1046E000002302480FF012FCFEE700BF8C1F0308F6
:1046F000F8B50D46064650B10FF002FC002840F018
:104700008680324600238B480FF000FCFEE70EF057
:10471000CFFB002800F0D68130300FF00DFD0446AD
:104720000FF0EEFB28B92246002383480FF0EEFB82
:10473000FEE7002C00F0C4814C21204610F080FAE6
:1047400094F835306FF3461384F835307B4BE361D2
:104750007B4B23620027A7612782678238460EF0D1
:10476000ADFB83B2013BA38238460EF0BCFB83B2A3
:10477000013BE3824C21201D0FF0D6FC0023638611
:1047800084F8303084F8313084F84830A4F844306C
:10479000A4F84630236494F8492063F3000284F8B7
:1047A0004920A36394F8341001F07F0141F0010126
:1047B00094F83520032060F3840284F83C3001F043
:1047C000C10163F3861184F83410F11A18BF012176
:1047D00061F3000263F3410284F8352084F83D3030
:1047E000636204F12807384603F06DF9002D00F0EC
:1047F000968005F12801384604F07EF8002D00F07F
:10480000568105F1100104F110020823A1E0301DCA
:104810000FF092FC04460FF073FB002847D0002CE9
:1048200000F04E814C21204610F00AFA266094F8E0
:1048300035306FF3461384F83530404BE361404B1D
:1048400023620020A061B6F912306382778A0EF0ED
:104850005EFB322303FB00F35033B3F5A07F2CDA69
:1048600001233B44E3822046FFF732FF012833D087
:10487000B6F910302382378A00200EF048FB6423FB
:1048800003FB00F35033B3F5A07F46DB00200EF0AE
:104890003EFB642303FB00F350332A4A82FB0312DE
:1048A000DB17C3EBA2139BB23B44A38262E7224611
:1048B000002321480FF02AFBFEE700200EF027FB23
:1048C000322303FB00F350331E4A82FB0312DB1733
:1048D000C3EBA2139BB2C4E7B6F91430A382B78A24
:1048E00000200EF014FB642303FB00F35033B3F5F8
:1048F000A07F10DB00200EF00AFB642303FB00F313
:104900005033104A82FB0312DB17C3EBA2139BB296
:10491000FB1A23822EE70123FAE70123C4E726B11D
:104920000221204611F062FE68E70121204611F0C5
:104930005DFE63E78C1F03087C1F030815700008E9
:10494000056500086766666611F8010B02F8010B41
:10495000013B002BF8D1B5F93230638695F8303041
:1049600084F8303095F8313084F8313095F83530AE
:10497000C3F3411394F8352063F3461284F83520CD
:1049800095F8483084F84830B5F94430A4F84430FC
:10499000B5F94630A4F846302B6C236495F84920CD
:1049A00094F8493062F3000384F84930AB69A3619D
:1049B00095F83430DB0994F8342063F3C71284F897
:1049C000342095F8342094F8343062F3000384F8EE
:1049D000343095F83430C3F3400394F8342063F353
:1049E000410284F8342095F83530C3F3820394F8FB
:1049F000352063F3840284F8352095F83430C3F30E
:104A0000800394F8342063F3820284F8342095F80C
:104A10003430C3F3C003D2B263F3C30284F834204A
:104A200095F83430C3F30013D2B263F3041284F860
:104A3000342095F83430C3F34013D2B263F34512F7
:104A400084F8342095F83430C3F38013D2B263F382
:104A5000861284F8342095F83C3084F83C3095F880
:104A6000352094F8353062F3000384F8353095F83A
:104A70003530C3F3400394F8352063F3410284F8E2
:104A80003520A86B10B12146FEF778FA2846FEF7CC
:104A9000B1FF60B15EB12846FFF77EF807462846B1
:104AA000FFF794F8024639462046FFF7A3FA3EB1D5
:104AB000F36922460121304698472046FFF738FA2D
:104AC0002046F8BD3446FBE7F0B583B004460D46FA
:104AD0000FF016FA28B92246002330480FF016FAD4
:104AE000FEE728460FF00CFA002836D0236893B36F
:104AF0008DB32046FFF71CFA27682046FFF766F8BB
:104B0000ADF806002846FFF7E3FD064601282AD047
:104B10002046FFF741F8ADF8040020680123224643
:104B2000291D04300FF0E8FB2560012E21D0BDF9CE
:104B30000620BDF904102046FFF75CFAFB6900224D
:104B4000012138469847EB692246012128469847BB
:104B50002046FFF7EDF903B0F0BD2A4600230F48C9
:104B60000FF0D4F9FEE7BB8AA28A9B1AADF8043095
:104B7000D3E72846FFF744F886B2BDF80430F61AAA
:104B8000B6B22046FFF73CF881B2711ABDF9062093
:104B900009B22046FFF72EFAD0E700BF8C1F0308AA
:104BA00070B582B004460D4616460FF0A9F928B933
:104BB000224600232B480FF0A9F9FEE72046FFF715
:104BC0001FF8A84228D02046FFF7B2F969462046D0
:104BD000FEF7C6FF638A33449BB2013BE382204663
:104BE000FFF776FD01281DD0238A2B449BB2013BA1
:104BF000A382E3696A460221204698472046FEF7D1
:104C0000F9FE18B1C56922460121A847261D304684
:104C10000FF0D0FA054615E02046FFF705F8B04240
:104C2000D1D119E0A38A5B1B9BB201332382E0E759
:104C3000EB696A46032128469847294630460FF01B
:104C4000C3FA0546002DF3D12046FFF771F994F819
:104C5000493013F0010F01D102B070BD2046FFF7BB
:104C60007BFCF9E78C1F030838B504460D460FF0AE
:104C700047F928B92246002306480FF047F9FEE716
:104C80002046FEF7D1FF024629462046FFF788FF5F
:104C900038BD00BF8C1F030838B504460D460FF021
:104CA0002FF928B92246002306480FF02FF9FEE716
:104CB0002046FEF7A5FF2A4601462046FFF770FF73
:104CC00038BD00BF8C1F030838B504460D460FF0F1
:104CD00017F930B194F83C302B4214BF012000206A
:104CE00038BD2246002302480FF010F9FEE700BF4E
:104CF0008C1F030830B583B004460D460FF000F951
:104D000028B13F2D09D894F83D0003B030BD2246AC
:104D1000002308480FF0FAF8FEE78DF8045000234E
:104D20008DF8053001AA09212046FEF71DFE9DF8E9
:104D30000500EAE78C1F03082DE9F04383B006461F
:104D40000D4690464FEA1229144606E0BDF80400CD
:104D500026E03046FEF74EFE0646D6B129463046DE
:104D6000FEF788FF074629463046FFF7C3FF0402D7
:104D7000A4B24444A4B201AA2146384603F0EBFE93
:104D80000128E3D019F0800F03D0002DE1D00025D9
:104D9000E3E724F4FE44293C012C04D94FF0000041
:104DA00003B0BDE8F083014B1888F9E7001C030845
:104DB0002DE9F04383B007460E4690464FEA12298C
:104DC000144622E024F4FE423146384600F06CF8E6
:104DD0002CE06B7913F0200F45D10023002B50D12C
:104DE00031463846FFF786FF0402A4B24444A4B219
:104DF0000DF107022146284603F00FFF012838D0A5
:104E000019F0800F3DD0BEB30026D7B331463846E7
:104E1000FEF730FF0546437913F0080FE0D1027921
:104E200012F03F0FDCD013F0040FCBD024F4FE437C
:104E300048F20C029342CCD048F2AD0293420CD01F
:104E40002C2B01D00023C9E7AB7913F0100F27D129
:104E500013F0080F09D10023C0E7EB7913F0100F0E
:104E600005D10023BAE70123B8E70123B6E7012300
:104E7000B4E79DF8070014E03846FEF7BBFD07468F
:104E8000C3E724F4FE44A4B26D2C07D048F2AD036E
:104E90009C4203D02C2C01D0FF2002E0002000E037
:104EA000FF2003B0BDE8F083F8B505460E46104676
:104EB000FEF75AFA00B9F8BD31462846FEF7DAFE89
:104EC00004464379C3F3C00743F00803437148F233
:104ED0000C0231462846FFF76BFFFF2814BF002065
:104EE0000120637960F34513637148F28202314611
:104EF000284600F007FAC0B2B0FA80F04009E37922
:104F000060F38613E37148F28E023146284600F0C2
:104F100081F9BF4B834214BF00200120E37960F385
:104F2000C713DBB243F02003E37148F2800231463D
:104F3000284600F0E7F9002800F0D680E3796FF307
:104F40004513E3712C2231462846FFF731FFB0FAB2
:104F500080F25209A37962F3C303FF2814BF002033
:104F6000012060F30413A37130223146284600F07B
:104F7000C9F9B0FA80F04009A37960F34513A37131
:104F800031223146284600F0BDF9C0B20F2814BFC7
:104F900000200120A37960F38613A37133223146E8
:104FA000284600F0AFF9B0FA80F04009A37960F329
:104FB000C713A37102223146284600F0A3F9B0FAC4
:104FC00080F04009637960F38613637148F2AD02A3
:104FD00031462846FFF7ECFEB0FA80F04009E3794D
:104FE00060F30413E37140223146284600F08AF949
:104FF000B0FA80F04009E37960F30003E3716E22B8
:105000003146284600F006F9B0FA80F04009E3790D
:1050100060F34103E37101223146284600F072F942
:10502000B0FA80F04009637960F304136371502291
:105030003146284600F066F9B0FA80F04009E3797D
:1050400060F38203E3717F223146284600F0E2F8E4
:10505000B0FA80F04009E37960F3C303E371637948
:1050600043F08003637106223146284600F04AF976
:10507000002843D063796FF3C7136371A37943F0BA
:105080000103A37110223146284600F03BF90028A5
:105090004BD0A3796FF30003A371A37943F002030C
:1050A000A37115223146284600F02CF9002852D071
:1050B000A3796FF34103A371A37943F00403A371B0
:1050C00020223146284600F01DF9C0B2002858D0F1
:1050D000A3796FF38203A371637967F3C303DBB230
:1050E00043F004036371E6E648F281023146284644
:1050F00000F008F900283FF425AF1FE704223146ED
:10510000284600F0FFF80028B4D105223146284691
:1051100000F0F8F80028ADD107223146284600F00B
:10512000F1F8B0F5807FA5D1A8E7112231462846D5
:1051300000F0E8F80028ACD112223146284600F0F1
:10514000E1F80028A5D113223146284600F0DAF80C
:105150000028A2D09DE716223146284600F0D2F85A
:105160000028A5D117223146284600F0CBF80028A8
:105170009ED118223146284600F0C4F800289BD062
:1051800096E732223146284600F0BCF8C0B200282B
:105190009ED160223146284600F0B4F8C0B2002803
:1051A00096D142223146284600F0ACF8C0B2002821
:1051B0008ED172223146284600F0A4F8C0B20028F1
:1051C00086D148F283023146284600F09BF8C0B2EF
:1051D00000287FF47DAF91223146284600F092F8F6
:1051E000C0B200287FF474AF48F2A00231462846CE
:1051F00000F088F8C0B200287FF46AAF542231462C
:10520000284600F07FF8C0B200283FF465AF5FE7A2
:10521000400000202DE9F04383B007460E4690463B
:105220004FEA122914462DE024F4FE423146384656
:10523000FFF73AFE37E0EB7913F0080F3FD1002378
:105240000AE0EB7913F0020F3BD1002304E095F95B
:105250000730002B37DB0023002B3FD13146384687
:10526000FFF748FD0402A4B24444A4B201AA2146B7
:10527000284603F035FD012827D019F0800F2DD0E6
:105280003EB3002657B331463846FEF7F3FC0546D9
:10529000437913F0080FE1D1027912F03F0FDDD00E
:1052A00013F0040FC0D024F4FE437F2BC3D048F288
:1052B0008E029342CBD06E2BC3D00023CCE70123C8
:1052C000CAE70123C8E70123C6E7019803B0BDE898
:1052D000F0833846FEF78EFB0746D3E724F4FE44FE
:1052E000A4B2BE2C07D048F28E039C4205D07E2C7F
:1052F00003D00020EAE70248E8E711F085F9E5E786
:10530000285503082DE9F04383B007460E46904622
:105310004FEA1229144678E024F4FE42314638461A
:10532000FFF7C2FD84E0043B032B54D895F9053008
:10533000002BC0F2C08000234EE0202B29D00CDDD2
:10534000312B00F09C8024DC302B44D1AB7913F05E
:10535000200F40F0B28000233EE0153B032B3AD8EB
:10536000AB7913F0020F40F0B680002334E0722BCB
:105370000FD01ADC502B00F08E8011DC402B06D1B0
:10538000EB7913F0010F40F09E80002324E0422BC4
:1053900021D1AB7913F0040F40F09F8000231BE074
:1053A000542BF6D0602B16D1F3E748F281029342DA
:1053B0000BDD48F283029342EBD04FDAEB7913F026
:1053C000400F40F08C80002306E048F280029342B8
:1053D0004FDA912BDDD00023002B40F08C8031463A
:1053E0003846FFF787FC0402A4B24444A4B20DF18E
:1053F00006022146284603F04BFB012871D019F024
:10540000800F78D0002E71D00026002F73D0314647
:105410003846FEF72FFC0546437913F0080FDED11E
:10542000027912F03F0FDAD013F0040F3FF474AF9B
:1054300024F4FE43332B28D099DC132B3FF77DAFA8
:10544000102B2EDA022B0ED03FF76DAF012BC2D1FD
:105450006B7913F0100F38D10023BDE748F2A0029A
:105460009342B8D195E76B7913F0400F1FD1002319
:10547000B2E7EB7913F0200F1BD10023ACE7AB7937
:1054800013F0400F1BD10023A6E795F90630002B3F
:1054900017DB0023A0E7EB7913F0040F17D10023EB
:1054A0009AE7AB7913F0010F13D1002394E701239E
:1054B00092E7012390E701238EE701238CE7012384
:1054C0008AE7012388E7012386E7012384E7012394
:1054D00082E7012380E701237EE701237CE70123A4
:1054E0007AE7BDF9060003B0BDE8F0833846FEF761
:1054F00081FA074689E724F4FE44A4B2222C0FD097
:1055000006D8032C10D0072C0CD14FF48070EAE79A
:10551000312C03D0C02C05D11020E4E70F20E2E7A6
:10552000FF20E0E70020DEE70620DCE770B5044658
:105530000EF0E6FC28B9224600230C480EF0E6FCEB
:10554000FEE7122200212046FFF7DCFE064613226A
:1055500000212046FFF7D6FE05462046FEF750FB09
:1055600080B2801B80B2401B00B270BD8C1F03084C
:1055700070B504460EF0C4FC28B9224600230C483E
:105580000EF0C4FCFEE7102200212046FFF7BAFE11
:105590000646112200212046FFF7B4FE05462046AC
:1055A000FEF742FB80B2801B80B2401B00B270BD90
:1055B0008C1F030870B506460C460EF0A1FC28B9F6
:1055C0003246002313480EF0A1FCFEE731220021F1
:1055D0003046FFF797FEC5B2302200213046FFF774
:1055E00091FE15F0040F02D023880344238015F0A8
:1055F000080F02D0A3881B1AA38015F0020F02D057
:1056000063880344638015F0010F02D0E388181A01
:10561000E08070BD8C1F03082DE9F041064600258F
:1056200009E0E3796FF34513E371637967F3C3032B
:1056300063710135EDB2402D5AD029463046FEF750
:1056400019FB0446002853D04379C3F3C00743F045
:105650000803437148F20C0229463046FFF7A8FBC5
:10566000FF2814BF00200120637960F345136371A4
:1056700048F2820229463046FFF744FEC0B2B0FA33
:1056800080F04009E37960F38613E37148F28E02FB
:1056900029463046FFF7BEFD804610F0B5FF804535
:1056A00014BF00200120E37960F3C713E37148F2CF
:1056B000AD0229463046FFF77BFBB0FA80F0400987
:1056C000E37960F30413DBB243F02003E37148F2A3
:1056D000800229463046FFF715FE0028A1D148F286
:1056E000810229463046FFF70DFE00289DD098E73D
:1056F00000213046FEF7D4F9044607E02046FFF7C4
:105700008BFF21463046FEF7CBF90446002CF5D13D
:10571000BDE8F08138B505461046FDF725FE70B1AD
:1057200000243F2C0CD821462846FEF7A3FA38B1B6
:1057300042796FF3820242710134E4B2F1E738BD7D
:105740004024FF2C0BD021462846FEF793FA30B1B7
:1057500042796FF3820242710134E4B2F1E7002131
:105760002846FEF79DF9044607E02046FFF754FF60
:1057700021462846FEF794F90446002CF5D138BDA1
:10578000F8B505460F4614460EF0BAFB28B92A466E
:10579000002334480EF0BAFBFEE70646224639469F
:1057A0002846FFF7B7FF712C3AD8702C0CD2412C49
:1057B0002CD8402C08D2022C05D3072C04D9A4F1F4
:1057C0001003082B00D90026002E46D02846FEF7ED
:1057D000AFFBEB690022042128469847152C09D31A
:1057E000182C01D9FF2C05D1286818B1C3690022F3
:1057F000012198472846FEF79BFBFF2C02D014F4AA
:10580000004F2DD02846FEF7D3FEF8BD532C04D808
:10581000502CD9D24C2CD6D1D6E75C2CD3D1D3E79F
:105820007F2C0CD948F281039C4211D848F28003A6
:105830009C42C9D2902CC7D0FF2CC4D1C4E77E2C87
:10584000C2D2732CBFD3752CBED97C2CBBD1BBE785
:1058500048F28E039C42B6D1B6E72846FEF768FBB5
:10586000F8BD00BF8C1F0308AAB170B516460D46DF
:105870000446FEF7FFF968B1314602F083F90023D0
:10588000FF2229462046FEF70BFAFF222946204632
:10589000FFF776FF70BD704738B504460D46FEF73A
:1058A0003BFAFF2229462046FFF76AFF38BDF8B5CC
:1058B00005460E4614461F46FEF7DCF93A462146D9
:1058C00003F0C8F80023224631462846FEF7E8F9DF
:1058D00024F4FE4231462846FFF752FFF8BDF8B5E2
:1058E00005460E4614461F46FEF7C4F93A462146C1
:1058F00003F0BAF80023224631462846FEF7D0F9D5
:1059000024F4FE4231462846FFF73AFFF8BDF8B5C9
:1059100005460E4614461F46FEF7ACF93A462146A8
:1059200003F0ACF80023224631462846FEF7B8F9CA
:1059300024F4FE4231462846FFF722FFF8BDF8B5B1
:1059400004460E46002527E0591CC9B211E000228A
:1059500094421AD0CCB10133DBB23A7902F03F0263
:10596000934217DAB98801F4C071B1F5C07FEBD06A
:105970001946387910F03F0FE9D08A4203DD3A68C2
:1059800052F82120E4E70022E2E7FF2229463046D0
:10599000FFF7F6FE0135EDB2402D07D0294630461F
:1059A000FEF768F9074608B10023D6E70021304624
:1059B000FEF776F8054608E029462046FFF7BFFFC8
:1059C00029463046FEF76CF80546002DF4D1F8BDA7
:1059D000F8B5064600200DF0D3FA07460EE0214642
:1059E0003046FFF7ACFF214628460EF0EDFB04469B
:1059F000002CF4D138460DF0C3FA074637B107F151
:105A0000300528460EF0D6FB0446F1E7F8BDF8B5A0
:105A100004460D4681790068FEF72CF902F02EFF4E
:105A2000A18801F00F03082B1BDC4DB9B4F9082045
:105A300002F00AFAA288A1792068FFF7A1FEF8BD5A
:105A4000FF2D0BD0B4F90860B2B2B4F90C309B1B37
:105A500003FB05F502EB252212B2E9E7B4F90C20AD
:105A6000E6E70B2B44DC002D05DDFE2D05DDA289CC
:105A700002F0AAFADEE72289FAE7EDB2A7892689C1
:105A8000C7F3C423C6F3C422C5F1FF0E0EFB02F216
:105A900005FB0323803303EB032203EBC213C3F3A1
:105AA000C4534FF0000263F3CF22C7F34513C6F38C
:105AB000451C0CFB0EFC03FB05C3803303EB032CDE
:105AC00003EBCC13C3F3C55363F34A1207F01F076C
:105AD00006F01F0606FB0EFE07FB05E5803505EB0D
